:100000000C942A000C9447000C9447000C94470071
:100010000C9447000C9447000C9447000C94470044
:100020000C9447000C9447000C9447000C94470034
:100030000C9447000C9447000C9447000C94470024
:100040000C9447000C9447000C9447000C94470014
:100050000C94470011241FBECFE5D8E0DEBFCDBF12
:1000600010E0A0E6B0E0E8E4F2E102C005900D92F5
:10007000A636B107D9F710E0A6E6B0E001C01D92A0
:10008000A637B107E1F70E9460020C9422090C9494
:100090000000DF93CF93CDB7DEB780E060E00E9431
:1000A0004D0580E690E00E94BE0580E06CE00E9475
:1000B0004D0580E690E00E94BE0581E060E00E9470
:1000C0004D0580E690E00E94BE0581E06CE00E9454
:1000D0004D0580E690E00E94BE05CF91DF91089526
:1000E000DF93CF9300D000D0CDB7DEB769837A839A
:1000F0008B839C8380E060E00E944D0569817A815A
:100100008B819C8120E030E040E452E40E94E106D3
:10011000DC01CB01BC01CD010E94B607DC01CB01A3
:100120000E94870580E061E00E944D058EE20E94FA
:10013000870580E062E00E944D0569817A818B81AC
:100140009C8120E030E040E251E40E949808DC010C
:10015000CB01BC01CD010E94B107DC01CB012AE03B
:1001600030E0B9010E94FB0890936700809366001D
:100170008091660090916700805D0E94870580E015
:1001800063E00E944D0569817A818B819C8120E02A
:1001900030E048EC52E40E949808DC01CB01BC013D
:1001A000CD010E94B107DC01CB012AE030E0B901AA
:1001B0000E94FB089093690080936800809168001A
:1001C00090916900805D0E9487050F900F900F90BD
:1001D0000F90CF91DF910895DF93CF9300D000D09F
:1001E000CDB7DEB769837A838B839C8380E06CE034
:1001F0000E944D0569817A818B819C8120E030E0ED
:1002000040E452E40E94E106DC01CB01BC01CD01D7
:100210000E94B607DC01CB010E94870580E06DE0FB
:100220000E944D058EE20E94870580E06EE00E94EC
:100230004D0569817A818B819C8120E030E040E22C
:1002400051E40E949808DC01CB01BC01CD010E9461
:10025000B107DC01CB012AE030E0B9010E94FB08C4
:10026000909373008093720080917200909173005C
:10027000805D0E94870580E06FE00E944D056981E6
:100280007A818B819C8120E030E048EC52E40E942E
:100290009808DC01CB01BC01CD010E94B107DC0153
:1002A000CB012AE030E0B9010E94FB089093750071
:1002B000809374008091740090917500805D0E941D
:1002C00087050F900F900F900F90CF91DF910895B9
:1002D000DF93CF9300D000D0CDB7DEB769837A83A8
:1002E0008B839C8381E06CE00E944D0569817A815B
:1002F0008B819C8120E030E040E452E40E94E106E2
:10030000DC01CB01BC01CD010E94B607DC01CB01B1
:100310000E94870581E06DE00E944D058EE20E94FB
:10032000870581E06EE00E944D0569817A818B81AD
:100330009C8120E030E040E251E40E949808DC011A
:10034000CB01BC01CD010E94B107DC01CB012AE049
:1003500030E0B9010E94FB0890936B0080936A0023
:1003600080916A0090916B00805D0E94870581E01A
:100370006FE00E944D0569817A818B819C8120E02C
:1003800030E048EC52E40E949808DC01CB01BC014B
:10039000CD010E94B107DC01CB012AE030E0B901B8
:1003A0000E94FB0890936D0080936C0080916C001C
:1003B00090916D00805D0E9487050F900F900F90C7
:1003C0000F90CF91DF910895DF93CF9300D000D0AD
:1003D000CDB7DEB769837A838B839C8381E060E04D
:1003E0000E944D0569817A818B819C8120E030E0FB
:1003F00040E452E40E94E106DC01CB01BC01CD01E6
:100400000E94B607DC01CB010E94870581E061E014
:100410000E944D058EE20E94870581E062E00E9405
:100420004D0569817A818B819C8120E030E040E23A
:1004300051E40E949808DC01CB01BC01CD010E946F
:10044000B107DC01CB012AE030E0B9010E94FB08D2
:1004500090936F0080936E0080916E0090916F007A
:10046000805D0E94870581E063E00E944D056981FF
:100470007A818B819C8120E030E048EC52E40E943C
:100480009808DC01CB01BC01CD010E94B107DC0161
:10049000CB012AE030E0B9010E94FB089093710083
:1004A000809370008091700090917100805D0E9437
:1004B00087050F900F900F900F90CF91DF910895C7
:1004C000DF93CF93CDB7DEB767970FB6F894DEBF53
:1004D0000FBECDBF80E090E0A0E0B0E08C8B9D8BA4
:1004E000AE8BBF8B80E090E0A0E0B0E0888B998B72
:1004F000AA8BBB8B80E090E0A0E2B1E48C879D8763
:10050000AE87BF8780E090E0A0E0B0E08887998761
:10051000AA87BB8780E090E0A0E0B0E08C839D8359
:10052000AE83BF831B821A8219820E9402050E9439
:1005300042050E9449000E948E068D30910509F007
:1005400013C181E08B830BC1E7E2F0E080E680839A
:10055000E6E2F0E080EC808389819A8101969A83BB
:100560008983E5E2F0E08081882F90E0A0E0B0E0B0
:10057000BC01CD010E94E207DC01CB01BC01CD0131
:1005800020E030E040E050E00E94E106DC01CB01D9
:10059000BC01CD0120E030E040EA50E40E94980820
:1005A000DC01CB01BC01CD0120E030E04FE753E49A
:1005B0000E944907DC01CB018C8B9D8BAE8BBF8BDE
:1005C0008C899D89AE89BF89BC01CD010E947000D4
:1005D0006C817D818E819F812C893D894E895F89C7
:1005E0000E94E106DC01CB018C839D83AE83BF8337
:1005F00089819A81CC01A0E0B0E0BC01CD010E94CC
:10060000E2079B01AC016C817D818E819F810E94FC
:100610004907DC01CB0188879987AA87BB87888532
:100620009985AA85BB85BC01CD010E94EC006C892F
:100630007D898E899F89288939894A895B890E94A9
:100640009408181684F48C899D89AE89BF89888B9B
:10065000998BAA8BBB8B88899989AA89BB89BC0194
:10066000CD010E94E4016C897D898E899F892C854A
:100670003D854E855F850E944507882384F48C89DB
:100680009D89AE89BF898C879D87AE87BF878C8502
:100690009D85AE85BF85BC01CD010E9468010E9489
:1006A0008E068530910511F41B8255C00E948E067E
:1006B0008930910509F04FC01B821A82198280E0AF
:1006C00090E0A0E0B0E08C839D83AE83BF8380E0A8
:1006D00090E0A0E0B0E08C8B9D8BAE8BBF8B80E078
:1006E00090E0A0E0B0E0888B998BAA8BBB8B80E078
:1006F00090E0A0ECB0E48C879D87AE87BF8780E058
:1007000090E0A0E0B0E088879987AA87BB87109225
:1007100067001092660010926900109268001092B3
:100720006B0010926A0010926D0010926C00109293
:100730006F0010926E001092710010927000109273
:1007400073001092720010927500109274000E9453
:1007500042050E94490084EF91E00E9419048B81B8
:10076000882309F0F1CE55C00E948E06893091058C
:1007700009F04FC01B821A82198280E090E0A0E04D
:10078000B0E08C839D83AE83BF8380E090E0A0E0E7
:10079000B0E08C8B9D8BAE8BBF8B80E090E0A0E0B7
:1007A000B0E0888B998BAA8BBB8B80E090E0A0ECAB
:1007B000B0E48C879D87AE87BF8780E090E0A0E0A3
:1007C000B0E088879987AA87BB871092670010924C
:1007D0006600109269001092680010926B001092EF
:1007E0006A0010926D0010926C0010926F001092CF
:1007F0006E001092710010927000109273001092AF
:10080000720010927500109274000E9442050E94BE
:10081000490082E390E00E9419048DCEDF93CF93CC
:10082000CDB7DEB7E1E4F0E08FE08083CF91DF91D8
:100830000895DF93CF9300D00F92CDB7DEB79A83A0
:100840008983E3E5F0E082E0808314C0E2E5F0E034
:100850001082A8E5B0E0E8E5F0E0808181608C934B
:10086000A895E8E5F0E08081882F90E08170907095
:100870000097B9F31B8289819A81009711F081E07A
:100880008B8389819A8101979A8389838B818823BD
:10089000E9F6E3E5F0E010820F900F900F90CF9112
:1008A000DF910895DF93CF9300D0CDB7DEB78A8371
:1008B0008A81882341F0A8E3B0E0E8E3F0E080819A
:1008C00082608C9307C0A8E3B0E0E8E3F0E08081A9
:1008D0008D7F8C93A8E3B0E0E8E3F0E08081846052
:1008E0008C930E949604A8E3B0E0E8E3F0E08081F6
:1008F00088608C930E948C040E9496048983A8E3EC
:10090000B0E0E8E3F0E08081877F8C9389810F90ED
:100910000F90CF91DF910895DF93CF93CDB7DEB7DE
:10092000000000000000CF91DF910895DF93CF9386
:10093000CDB7DEB7E1E3F0E01082E0E3F0E08081E4
:10094000CF91DF910895DF93CF9300D0CDB7DEB77D
:1009500089836A838A81882341F0A8E3B0E0E8E3D1
:10096000F0E0808182608C9307C0A8E3B0E0E8E308
:10097000F0E080818D7F8C93A8E3B0E0E8E3F0E0C5
:1009800080818B7F8C9389810E94DB04A8E3B0E097
:10099000E8E3F0E0808188608C930E948C04A8E3F7
:1009A000B0E0E8E3F0E08081877F8C930F900F90B8
:1009B000CF91DF910895DF93CF930F92CDB7DEB73C
:1009C0008983E2E3F0E089818083E1E3F0E08FEF67
:1009D00080830F90CF91DF910895DF93CF9300D064
:1009E000CDB7DEB789836A8380E00E9452048823F2
:1009F000DCF389816A810E94A3040F900F90CF914C
:100A0000DF910895DF93CF93CDB7DEB7A7E3B0E0D2
:100A1000E7E3F0E0808182608C93A7E3B0E0E7E356
:100A2000F0E0808184608C93A7E3B0E0E7E3F0E03E
:100A3000808188608C9380E190E00E94190480E3BB
:100A400060E00E94A30485E090E00E94190480E326
:100A500060E00E94A30481E090E00E9419048CE30E
:100A600060E00E94ED048CE060E00E94ED0486E00E
:100A700060E00E94ED0481E060E00E94ED04CF910F
:100A8000DF910895DF93CF93CDB7DEB781E060E0CB
:100A90000E94ED04CF91DF910895DF93CF9300D0B2
:100AA00000D0CDB7DEB78A836B838A81882F90E030
:100AB0009C01220F331F220F331F220F331FC90146
:100AC000880F991F880F991F820F931F982F8B8172
:100AD000890F898382E060E00E94ED0404C084E114
:100AE00060E00E94ED0489818C838C81882311F061
:100AF00081E08C838C81998191509983882379F747
:100B00000F900F900F900F90CF91DF910895DF938A
:100B1000CF930F92CDB7DEB78983898161E00E94C0
:100B2000ED040F90CF91DF910895DF93CF9300D024
:100B300000D000D0CDB7DEB79E838D8304C08C81FA
:100B400061E00E94ED048D819E819B838A838D816B
:100B50009E8101969E838D83EA81FB8184918983A6
:100B600089818C838C81882351F726960FB6F8945F
:100B7000DEBF0FBECDBFCF91DF910895DF93CF933E
:100B800000D000D0CDB7DEB79B838A8304C08981B3
:100B900061E00E94ED04EA81FB8180818983898183
:100BA0008C838C81882311F081E08C838C812A8155
:100BB0003B812F5F3F4F3B832A83882341F70F9070
:100BC0000F900F900F90CF91DF910895DF93CF9307
:100BD000CDB7DEB729970FB6F894DEBF0FBECDBFF5
:100BE0009E838D8378876F831C821B8226C0A4E33B
:100BF000B0E0E4E3F0E08081282F81E090E00B801A
:100C000002C0880F991F0A94E2F7809582238C9383
:100C1000A5E3B0E0E5E3F0E08081282F81E090E0FB
:100C20000B8002C0880F991F0A94E2F7822B8C93E5
:100C30008B819C8101969C838B838B819C818430EA
:100C40009105ACF284E090E09A83898325C0A4E307
:100C5000B0E0E4E3F0E08081282F81E090E00980BB
:100C600002C0880F991F0A94E2F7822B8C93A5E3A8
:100C7000B0E0E5E3F0E08081282F81E090E009809A
:100C800002C0880F991F0A94E2F7822B8C93898106
:100C90009A8101969A83898389819A818830910506
:100CA000B4F2A5E3B0E0E5E3F0E08081282F81E035
:100CB00090E00F8002C0880F991F0A94E2F7809598
:100CC00082238C93E3E3F0E08081882F90E00D8015
:100CD00002C0959587950A94E2F7817090708823F9
:100CE00079F4E3E3F0E08081882F90E00F8002C088
:100CF000959587950A94E2F781709070882311F09A
:100D0000198602C081E08987898529960FB6F894F3
:100D1000DEBF0FBECDBFCF91DF910895DF93CF939C
:100D2000CDB7DEB728970FB6F894DEBF0FBECDBFA4
:100D30001A8219821E821D8231C08D819E81049685
:100D40009A8389831C821B821FC08B819C8129818D
:100D50003A81B9010E94E605882389F08D819E8140
:100D60009C01220F331F220F331F8B819C81820F26
:100D7000931F9C012F5F3F4F38872F8316C08B81B5
:100D80009C8101969C838B838B819C81843091050F
:100D9000E4F28D819E8101969E838D838D819E815B
:100DA0008430910554F218861F828F819885289689
:100DB0000FB6F894DEBF0FBECDBFCF91DF9108957F
:100DC0005058BB27AA270ED075C166D130F06BD121
:100DD00020F031F49F3F11F41EF45BC10EF4E09556
:100DE000E7FB51C1E92F77D180F3BA176207730788
:100DF0008407950718F071F49EF58FC10EF4E09505
:100E00000B2EBA2FA02D0B01B90190010C01CA01C4
:100E1000A0011124FF27591B99F0593F50F4503E6F
:100E200068F11A16F040A22F232F342F4427585F61
:100E3000F3CF469537952795A795F0405395C9F779
:100E40007EF41F16BA0B620B730B840BBAF0915031
:100E5000A1F0FF0FBB1F661F771F881FC2F70EC0D0
:100E6000BA0F621F731F841F48F4879577956795A3
:100E7000B795F7959E3F08F0B3CF9395880F08F08C
:100E80009927EE0F979587950895D9D008F481E0BA
:100E900008950CD00FC107D140F0FED030F021F4FE
:100EA0005F3F19F0F0C0511139C1F3C014D198F36C
:100EB0009923C9F35523B1F3951B550BBB27AA27DB
:100EC00062177307840738F09F5F5F4F220F331F4D
:100ED000441FAA1FA9F333D00E2E3AF0E0E830D019
:100EE00091505040E695001CCAF729D0FE2F27D01C
:100EF000660F771F881FBB1F261737074807AB07EA
:100F0000B0E809F0BB0B802DBF01FF2793585F4F5E
:100F10002AF09E3F510568F0B6C000C15F3FECF378
:100F2000983EDCF3869577956795B795F7959F5F23
:100F3000C9F7880F911D9695879597F90895E1E077
:100F4000660F771F881FBB1F621773078407BA07D6
:100F500020F0621B730B840BBA0BEE1F88F7E09531
:100F6000089504D06894B111D9C00895BCD088F018
:100F70009F5790F0B92F9927B751A0F0D1F0660F85
:100F8000771F881F991F1AF0BA95C9F712C0B130A0
:100F900081F0C3D0B1E00895C0C0672F782F8827B3
:100FA000B85F39F0B93FCCF3869577956795B395DF
:100FB000D9F73EF490958095709561957F4F8F4F4E
:100FC0009F4F0895E89409C097FB3EF49095809553
:100FD000709561957F4F8F4F9F4F9923A9F0F92FFF
:100FE00096E9BB279395F695879577956795B7957D
:100FF000F111F8CFFAF4BB0F11F460FF1BC06F5F63
:101000007F4F8F4F9F4F16C0882311F096E911C074
:10101000772321F09EE8872F762F05C0662371F095
:1010200096E8862F70E060E02AF09A95660F771FA9
:10103000881FDAF7880F9695879597F90895990F85
:101040000008550FAA0BE0E8FEEF16161706E80792
:10105000F907C0F012161306E407F50798F0621BB3
:10106000730B840B950B39F40A2661F0232B242B88
:10107000252B21F408950A2609F4A140A6958FEFA7
:10108000811D811D089597F99F6780E870E060E0F9
:1010900008959FEF80EC089500240A941616170611
:1010A00018060906089500240A9412161306140659
:1010B00005060895092E0394000C11F4882352F0BC
:1010C000BB0F40F4BF2B11F460FF04C06F5F7F4F74
:1010D0008F4F9F4F089557FD9058440F551F59F05B
:1010E0005F3F71F04795880F97FB991F61F09F3F15
:1010F00079F087950895121613061406551FF2CF3E
:101100004695F1DF08C0161617061806991FF1CF8D
:1011100086957105610508940895E894BB276627B4
:101120007727CB0197F908958ADF08F48FEF0895A8
:101130000BD0C0CFB1DF28F0B6DF18F0952309F04F
:10114000A2CFA7CF1124EACFC6DFA0F3959FD1F39A
:10115000950F50E0551F629FF001729FBB27F00D65
:10116000B11D639FAA27F00DB11DAA1F649F6627BA
:10117000B00DA11D661F829F2227B00DA11D621F09
:10118000739FB00DA11D621F839FA00D611D221FC3
:10119000749F3327A00D611D231F849F600D211DA7
:1011A000822F762F6A2F11249F5750408AF0E1F04A
:1011B00088234AF0EE0FFF1FBB1F661F771F881F93
:1011C00091505040A9F79E3F510570F05CCFA6CFDB
:1011D0005F3FECF3983EDCF3869577956795B7957E
:1011E000F795E7959F5FC1F7FE2B880F911D9695A8
:1011F000879597F9089597FB092E07260AD077FD62
:1012000004D00CD006D000201AF4709561957F4F61
:101210000895F6F7909581959F4F0895AA1BBB1BE3
:1012200051E107C0AA1FBB1FA617B70710F0A61BE6
:10123000B70B881F991F5A95A9F780959095BC0107
:08124000CD010895F894FFCFE1
:061248005F5F5F5F000024
:00000001FF
