:100000000C942A000C9447000C9447000C94470071
:100010000C9447000C9447000C9447000C94470044
:100020000C9447000C9447000C9447000C94470034
:100030000C9447000C9447000C9447000C94470024
:100040000C9447000C9447000C9447000C94470014
:100050000C94470011241FBECFE5D8E0DEBFCDBF12
:1000600010E0A0E6B0E0E4EEF6E102C005900D92EB
:10007000A03AB107D9F710E0A0EAB0E001C01D92A4
:10008000AB3AB107E1F70E9449000C94700B0C9455
:100090000000DF93CF93CDB7DEB70E94B3000E947C
:1000A000E5010E942502A7E3B0E0E7E3F0E08081EC
:1000B00081608C9380E063E00E94300280E690E0F3
:1000C0000E94A10281E060E00E9430028BE690E095
:1000D0000E94A102E9E3F0E08081882F90E0817026
:1000E0009070982F81E08927882321F5E9E3F0E0DB
:1000F0008081882F90E0827090700097D9F0E9E3BA
:10010000F0E08081882F90E084709070009791F0EB
:10011000E9E3F0E08081882F90E08870907000978C
:1001200049F0E9E3F0E08081882F90E080719070E1
:100130000097A1F481E00E949D0310C00E94250257
:100140000E9400050E941D040E9458040E94390567
:1001500080E593EC0E94FB000E9425020E94AA0306
:10016000882361F7A7CFDF93CF9300D000D0CDB71E
:10017000DEB71C821B8215C0A4E3B0E0E4E3F0E02C
:100180008081282F81E090E00B8002C0880F991FAA
:100190000A94E2F7822B8C938B819C8101969C833D
:1001A0008B838B819C818530910534F31A8219826F
:1001B00016C0AAE3B0E0EAE3F0E08081282F81E0F6
:1001C00090E0098002C0880F991F0A94E2F7809599
:1001D00082238C9389819A8101969A83898389816C
:1001E0009A81863091052CF30F900F900F900F900D
:1001F000CF91DF910895DF93CF9300D00F92CDB7C9
:10020000DEB79A838983E3E5F0E083E0808315C05D
:10021000E2E5F0E08EEF8083A8E5B0E0E8E5F0E00D
:10022000808181608C93A895E8E5F0E08081882F3B
:1002300090E0817090700097B9F31B8289819A8158
:10024000009711F081E08B8389819A8101979A83CD
:1002500089838B818823E1F6E3E5F0E010820F903B
:100260000F900F90CF91DF910895DF93CF9300D03F
:10027000CDB7DEB78A838A81882341F0A8E3B0E056
:10028000E8E3F0E0808182608C9307C0A8E3B0E0EF
:10029000E8E3F0E080818D7F8C93A8E3B0E0E8E3B1
:1002A000F0E0808184608C930E947901A8E3B0E043
:1002B000E8E3F0E0808188608C930E946F010E94E7
:1002C00079018983A8E3B0E0E8E3F0E08081877FEB
:1002D0008C9389810F900F90CF91DF910895DF93D8
:1002E000CF93CDB7DEB7000000000000CF91DF91C3
:1002F0000895DF93CF93CDB7DEB7E1E3F0E010824E
:10030000E0E3F0E08081CF91DF910895DF93CF9318
:1003100000D0CDB7DEB789836A838A81882341F014
:10032000A8E3B0E0E8E3F0E0808182608C9307C04E
:10033000A8E3B0E0E8E3F0E080818D7F8C93A8E350
:10034000B0E0E8E3F0E080818B7F8C9389810E94AC
:10035000BE01A8E3B0E0E8E3F0E0808188608C9320
:100360000E946F01A8E3B0E0E8E3F0E08081877FBE
:100370008C930F900F90CF91DF910895DF93CF93DF
:100380000F92CDB7DEB78983E2E3F0E08981808305
:10039000E1E3F0E08FEF80830F90CF91DF9108953C
:1003A000DF93CF9300D0CDB7DEB789836A8380E037
:1003B0000E9435018823DCF389816A810E948601CD
:1003C0000F900F90CF91DF910895DF93CF93CDB72A
:1003D000DEB7A7E3B0E0E7E3F0E0808182608C93D2
:1003E000A7E3B0E0E7E3F0E0808184608C93A7E3CB
:1003F000B0E0E7E3F0E0808188608C9380E190E0FA
:100400000E94FB0080E360E00E94860185E090E0AE
:100410000E94FB0080E360E00E94860181E090E0A2
:100420000E94FB008CE360E00E94D0018CE060E061
:100430000E94D00186E060E00E94D00181E060E08F
:100440000E94D001CF91DF910895DF93CF93CDB774
:10045000DEB781E060E00E94D001CF91DF91089586
:10046000DF93CF9300D000D0CDB7DEB78A836B8304
:100470008A81882F90E09C01220F331F220F331FA7
:10048000220F331FC901880F991F880F991F820FF0
:10049000931F982F8B81890F898382E060E00E94EF
:1004A000D00104C084E160E00E94D00189818C8386
:1004B0008C81882311F081E08C838C81998191500B
:1004C0009983882379F70F900F900F900F90CF9119
:1004D000DF910895DF93CF930F92CDB7DEB7898375
:1004E000898161E00E94D0010F90CF91DF91089542
:1004F000DF93CF9300D000D000D0CDB7DEB79E837E
:100500008D8304C08C8161E00E94D0018D819E8129
:100510009B838A838D819E8101969E838D83EA8150
:10052000FB818491898389818C838C81882351F715
:1005300026960FB6F894DEBF0FBECDBFCF91DF91E8
:100540000895DF93CF9300D000D0CDB7DEB79B8363
:100550008A8304C0898161E00E94D001EA81FB8125
:100560008081898389818C838C81882311F081E04B
:100570008C838C812A813B812F5F3F4F3B832A8371
:10058000882341F70F900F900F900F90CF91DF913C
:100590000895EF92FF920F931F93DF93CF93CDB700
:1005A000DEB762970FB6F894DEBF0FBECDBF6B8784
:1005B0007C878D879E872F87388B498B5A8B8B85BD
:1005C0009C85AD85BE85BC01CD010E945603DC0132
:1005D000CB018F839887A987BA876F8578898989A6
:1005E0009A890E94C5067B018C012F813885498537
:1005F0005A85CA01B9010E94C605DC01CB019C01E4
:10060000AD01C801B7010E942A06DC01CB01BC0183
:10061000CD010E949206DC01CB018B839C83AD83CC
:10062000BE831A82198227C0A8E3B0E0E8E3F0E0B5
:10063000808181608C936F81788589859A850E94FD
:100640009706DC01CB010E94FB00A8E3B0E0E8E3E1
:10065000F0E080818E7F8C936F81788589859A8583
:100660000E949706DC01CB010E94FB0089819A81E0
:1006700001969A83898389819A819C0140E050E0A8
:100680008B819C81AD81BE81281739074A075B07A2
:100690005CF262960FB6F894DEBF0FBECDBFCF916D
:1006A000DF911F910F91FF90EF900895DF93CF930B
:1006B000CDB7DEB72C970FB6F894DEBF0FBECDBF17
:1006C00069877A878B879C8760E070E080E89FE38A
:1006D00029853A854B855C850E942A06DC01CB0181
:1006E0008D839E83AF83B8876D817E818F8198854E
:1006F00020E030E040E050E40E942A06DC01CB011B
:10070000BC01CD0120E030E44CE156E40E945107E9
:10071000DC01CB0189839A83AB83BC8389819A8175
:10072000AB81BC81BC01CD012C960FB6F894DEBF25
:100730000FBECDBFCF91DF910895DF93CF930F927E
:10074000CDB7DEB7898389818093A5000F90CF91C3
:10075000DF910895DF93CF93CDB7DEB78091A500E9
:10076000CF91DF910895DF93CF9300D0CDB7DEB75F
:100770009A83898389819A81FC01EA55FF4F8081A0
:10078000882359F460E070E08CED93E428EB3BE0C3
:1007900040E050E00E94C9024BC089819A81FC016F
:1007A000EA55FF4F8081813059F466E071EF86EFA2
:1007B00093E428EB3BE040E050E00E94C90238C0DF
:1007C00089819A81FC01EA55FF4F8081823059F47A
:1007D00060E170ED82E094E428EB3BE040E050E023
:1007E0000E94C90225C089819A81FC01EA55FF4F08
:1007F0008081833059F46FE175ED82E194E428EB58
:100800003BE040E050E00E94C90212C089819A8119
:10081000FC01EA55FF4F8081843051F462E570EDB0
:1008200084E294E428EB3BE040E050E00E94C902FF
:100830000F900F90CF91DF910895DF93CF9300D069
:1008400000D0CDB7DEB78091A0009091A1000E94AA
:1008500031081C821B8217C01A8219820E942C0840
:1008600025E030E0B9010E94B4079A8389838B8127
:100870009C812981FC01EA55FF4F20838B819C815B
:1008800001969C838B838B819C818530910520F31D
:100890008091A0009091A10001969093A100809377
:1008A000A0000F900F900F900F90CF91DF910895BF
:1008B000DF93CF9300D0CDB7DEB71A82198240C044
:1008C000A5E3B0E0E5E3F0E08081482F89819A81DB
:1008D000FC01EA55FF4F8081282F30E081E090E055
:1008E00002C0880F991F2A95E2F7842B8C93898187
:1008F0009A810E94B30380E29EE40E94FB00A5E37C
:10090000B0E0E5E3F0E08081482F89819A81FC0125
:10091000EA55FF4F8081282F30E081E090E002C04F
:10092000880F991F2A95E2F7809584238C9380E2A3
:100930009EE40E94FB0089819A8101969A838983B3
:1009400089819A81853091050CF4BACF0F900F9070
:10095000CF91DF910895DF93CF930F92CDB7DEB79C
:1009600085E08983E9E3F0E08081882F90E0817061
:100970009070009731F484E0898381E08093A40033
:100980003AC0E9E3F0E08081882F90E082709070B7
:10099000009731F483E0898381E08093A4002BC029
:1009A000E9E3F0E08081882F90E0847090700097F8
:1009B00031F482E0898381E08093A4001CC0E9E3E4
:1009C000F0E08081882F90E088709070009731F47B
:1009D00081E0898381E08093A4000DC0E9E3F0E029
:1009E0008081882F90E080719070009721F41982A7
:1009F00081E08093A40089810F90CF91DF910895C9
:100A0000DF93CF93CDB7DEB72F970FB6F894DEBF45
:100A10000FBECDBF2091A2003091A30000D000D026
:100A200000D0EDB7FEB73196CE0101969183808359
:100A300086E890E093838283358324830E943C0878
:100A40008DB79EB706960FB6F8949EBF0FBE8DBFAA
:100A500080E060E00E943002CE0101960E94A10277
:100A60002F960FB6F894DEBF0FBECDBFCF91DF91AA
:100A70000895DF93CF9300D000D0CDB7DEB71C82AE
:100A80001B8278C01092A4000E94AB048B8380E08C
:100A900068E00E9430028091A400882309F46AC0B3
:100AA0008C81882F90E0FC01EA55FF4F90818B816B
:100AB0009817C1F48C81882F90E00E94B303809135
:100AC000A2009091A30001969093A3008093A200AE
:100AD00080E593EC0E94FB008C818F5F8C830E94E9
:100AE000000546C060E070E088EC92E428EB3BE053
:100AF00040E050E00E94C90280E197E20E94FB00C2
:100B00001A82198220C089819A81880F991FFC015D
:100B1000E458FF4F80819181AA2797FDA095BA2FB5
:100B2000BC01CD010E94C506DC01CB01BC01CD0199
:100B300028EB3BE040E050E00E94C90289819A81A5
:100B400001969A83898389819A8185309105D8F2AB
:100B500081E060E00E94300280E990E00E94A10202
:100B60001092A5001092A3001092A20085E08C8341
:100B70001092A4008C81853008F484CF0F900F90E0
:100B80000F900F90CF91DF9108955058BB27AA275F
:100B90000ED04DC13ED130F043D120F031F49F3F13
:100BA00011F41EF433C10EF4E095E7FB29C1E92FDF
:100BB0004FD180F3BA17620773078407950718F0BF
:100BC00071F49EF567C10EF4E0950B2EBA2FA02D9F
:100BD0000B01B90190010C01CA01A0011124FF27EA
:100BE000591B99F0593F50F4503E68F11A16F040E5
:100BF000A22F232F342F4427585FF3CF46953795E4
:100C00002795A795F0405395C9F77EF41F16BA0BA8
:100C1000620B730B840BBAF09150A1F0FF0FBB1F56
:100C2000661F771F881FC2F70EC0BA0F621F731F9F
:100C3000841F48F4879577956795B795F7959E3FFC
:100C400008F0B3CF9395880F08F09927EE0F97958A
:100C5000879508950CD0EBC0E3D040F0DAD030F0A7
:100C600021F45F3F19F0CCC0511115C1CFC0F0D0B5
:100C700098F39923C9F35523B1F3951B550BBB2763
:100C8000AA2762177307840738F09F5F5F4F220F10
:100C9000331F441FAA1FA9F333D00E2E3AF0E0E809
:100CA00030D091505040E695001CCAF729D0FE2F55
:100CB00027D0660F771F881FBB1F261737074807E7
:100CC000AB07B0E809F0BB0B802DBF01FF2793589D
:100CD0005F4F2AF09E3F510568F092C0DCC05F3F35
:100CE000ECF3983EDCF3869577956795B795F79585
:100CF0009F5FC9F7880F911D9695879597F908957D
:100D0000E1E0660F771F881FBB1F62177307840718
:100D1000BA0720F0621B730B840BBA0BEE1F88F727
:100D2000E095089504D06894B111B5C0089598D0A5
:100D300088F09F5790F0B92F9927B751A0F0D1F0C4
:100D4000660F771F881F991F1AF0BA95C9F712C04E
:100D5000B13081F09FD0B1E008959CC0672F782F0B
:100D60008827B85F39F0B93FCCF3869577956795BA
:100D7000B395D9F73EF490958095709561957F4F26
:100D80008F4F9F4F0895E89409C097FB3EF49095CC
:100D90008095709561957F4F8F4F9F4F9923A9F054
:100DA000F92F96E9BB279395F695879577956795E3
:100DB000B795F111F8CFFAF4BB0F11F460FF1BC027
:100DC0006F5F7F4F8F4F9F4F16C0882311F096E9BA
:100DD00011C0772321F09EE8872F762F05C0662368
:100DE00071F096E8862F70E060E02AF09A95660F21
:100DF000771F881FDAF7880F9695879597F90895DA
:100E000097F99F6780E870E060E008959FEF80ECBD
:100E1000089500240A941616170618060906089560
:100E200000240A9412161306140605060895092EC6
:100E30000394000C11F4882352F0BB0F40F4BF2B35
:100E400011F460FF04C06F5F7F4F8F4F9F4F089575
:100E500057FD9058440F551F59F05F3F71F047956B
:100E6000880F97FB991F61F09F3F79F08795089550
:100E7000121613061406551FF2CF4695F1DF08C06F
:100E8000161617061806991FF1CF8695710561058C
:100E900008940895E894BB2766277727CB0197F934
:100EA00008950BD0C4CFB5DF28F0BADF18F0952332
:100EB00009F0A6CFABCF1124EECFCADFA0F3959FE8
:100EC000D1F3950F50E0551F629FF001729FBB2731
:100ED000F00DB11D639FAA27F00DB11DAA1F649FDD
:100EE0006627B00DA11D661F829F2227B00DA11D90
:100EF000621F739FB00DA11D621F839FA00D611D16
:100F0000221F749F3327A00D611D231F849F600D36
:100F1000211D822F762F6A2F11249F5750408AF06F
:100F2000E1F088234AF0EE0FFF1FBB1F661F771FFB
:100F3000881F91505040A9F79E3F510570F060CF37
:100F4000AACF5F3FECF3983EDCF3869577956795E3
:100F5000B795F795E7959F5FC1F7FE2B880F911D19
:100F60009695879597F9089597FB092E07260AD03D
:100F700077FD04D00CD006D000201AF4709561954E
:100F80007F4F0895F6F7909581959F4F0895AA1B7E
:100F9000BB1B51E107C0AA1FBB1FA617B70710F064
:100FA000A61BB70B881F991F5A95A9F78095909596
:100FB000BC01CD010895A0E0B0E0E1EEF7E00C94B3
:100FC0001F0BEC01A880B980CA80DB80A114B1049A
:100FD000C104D10441F484E2A82E89EDB82E8BE53A
:100FE000C82E87E0D82EC601B5012DE133EF41E0D0
:100FF00050E00E94FC0A27EA31E440E050E00E9401
:10100000DD0A7B018C01C601B5012DE133EF41E022
:1010100050E00E94FC0ACA01B9012CEE34EF4FEFF8
:101020005FEF0E94DD0A6E0D7F1D801F911F97FFED
:1010300004C06150704080409048688379838A83FF
:101040009B839B013F77C901CDB7DEB7EAE00C94E3
:101050003B0B0E94DB0708958BE990E00E94DB07C1
:101060000895A0E0B0E080939B0090939C00A09333
:101070009D00B0939E000895AEE0B0E0E2E4F8E099
:101080000C94250B0D891E8986E08C831A830983B5
:101090008FEF9FE79E838D839E01275E3F4FCE019A
:1010A00001966F89788DA9010E9460082F8138858B
:1010B000020F131FF80110822E96E4E00C94410BEE
:1010C000ABE0B0E0E6E6F8E00C94170B3C012B0136
:1010D0005A01FC0117821682838181FD03C06FEFE4
:1010E0007FEFC6C19AE0892E1E010894211C311C95
:1010F000F3012381F20123FD859123FF81912F01CB
:10110000882309F4B2C1853239F423FD859123FF88
:1011100081912F01853229F490E0B3010E94530A96
:10112000E7CF982FFF24EE249924FFE1FF15D0F09C
:101130009B3269F09C3228F4903259F0933291F44A
:101140000EC09D3249F0903369F441E024C052E072
:10115000F52A84E0F82A28C098E0F92A25C0E0E1C1
:10116000FE2A22C0F7FC29C0892F80538A3070F4F0
:10117000F6FE05C0989C902C1124980E15C0E89C92
:10118000E02C1124E80EF0E2FF2A0EC09E3229F472
:10119000F6FC6BC140E4F42A07C09C3619F450E811
:1011A000F52A02C0983649F4F20123FD959123FFF8
:1011B00091912F01992309F0B8CF892F855483305D
:1011C00018F08052833038F444E050E0A40EB51E8D
:1011D0005FE359830FC0933631F0933779F093353D
:1011E00009F056C020C0F5018081898342E050E0BB
:1011F000A40EB51E610101E010E012C0F501C0802F
:10120000D180F6FC03C06FEF7FEF02C0692D70E064
:1012100042E050E0A40EB51EC6010E94480A8C01AF
:101220005FE7F52214C0F501C080D180F6FC03C051
:101230006FEF7FEF02C0692D70E042E050E0A40E36
:10124000B51EC6010E943D0A8C0150E8F52AF3FE46
:1012500007C01AC080E290E0B3010E94530AEA94EA
:101260008E2D90E008171907A8F30EC0F601F7FCC1
:101270008591F7FE81916F0190E0B3010E94530ABE
:10128000E110EA94015010400115110579F7EAC008
:10129000943611F0993669F5F7FE08C0F501208102
:1012A00031814281538184E090E00AC0F501808160
:1012B00091819C01442737FD4095542F82E090E0B6
:1012C000A80EB91E9FE6F92257FF09C05095409518
:1012D000309521953F4F4F4F5F4FE0E8FE2ACA01FE
:1012E000B901A1012AE030E00E947F0AD82ED2186D
:1012F00040C0953729F41F2D1F7E2AE030E01DC025
:101300001F2D197F9F3661F0903720F4983509F032
:10131000ACC00FC0903739F0983709F0A6C004C0B0
:1013200028E030E00AC0106114FD146020E130E0D4
:1013300004C014FD166020E132E017FF08C0F5017B
:10134000608171818281938144E050E008C0F501A1
:1013500080819181BC0180E090E042E050E0A40EE9
:10136000B51EA1010E947F0AD82ED2188FE7F82E51
:10137000F122F6FE0BC05EEFF522D91438F4F4FE2C
:1013800007C0F2FC05C08FEEF82202C01D2D01C07F
:10139000192DF4FE0DC0FE01ED0DF11D808180338D
:1013A00019F499EEF92208C01F5FF2FE05C003C0D0
:1013B0008F2D867809F01F5F0F2DF3FC14C0F0FE0F
:1013C0000FC01E1510F09D2C0BC09D2C9E0C911A69
:1013D0001E2D06C080E290E0B3010E94530A1F5FF9
:1013E0001E15C0F304C01E1510F4E11A01C0EE244E
:1013F00004FF0FC080E390E0B3010E94530A02FF94
:101400001DC001FD03C088E790E00EC088E590E0B4
:101410000BC0802F867891F001FF02C08BE201C0E3
:1014200080E2F7FC8DE290E0B3010E94530A06C00F
:1014300080E390E0B3010E94530A9A94D914C0F358
:10144000DA94F101ED0DF11D808190E0B3010E946D
:10145000530ADD20A9F706C080E290E0B3010E94A4
:10146000530AEA94EE20C1F743CEF30166817781F7
:10147000CB012B96E2E10C94330BFC0105906150FB
:1014800070400110D8F7809590958E0F9F1F08959A
:10149000FC016150704001900110D8F78095909543
:1014A0008E0F9F1F08950F931F93CF93DF938C018F
:1014B000EB018B8181FF1BC082FF0DC02E813F811C
:1014C0008C819D812817390764F4E881F9810193A3
:1014D000F983E88306C0E885F985802F0995892B73
:1014E00031F48E819F8101969F838E8302C00FEF1E
:1014F0001FEFC801DF91CF911F910F910895FA015D
:10150000AA27283051F1203181F1E8946F936E7F42
:101510006E5F7F4F8F4F9F4FAF4FB1E03ED0B4E033
:101520003CD0670F781F891F9A1FA11D680F791F74
:101530008A1F911DA11D6A0F711D811D911DA11D85
:1015400020D009F468943F912AE0269F1124301995
:10155000305D3193DEF6CF010895462F4770405D30
:101560004193B3E00FD0C9F7F6CF462F4F70405DDF
:101570004A3318F0495D31FD4052419302D0A9F73A
:10158000EACFB4E0A6959795879577956795BA9534
:10159000C9F700976105710508959B01AC010A2EFA
:1015A00006945795479537952795BA95C9F7620FD1
:1015B000731F841F951FA01D0895629FD001739F04
:1015C000F001829FE00DF11D649FE00DF11D929FDF
:1015D000F00D839FF00D749FF00D659FF00D99271E
:1015E000729FB00DE11DF91F639FB00DE11DF91F42
:1015F000BD01CF011124089597FB092E05260ED0B9
:1016000057FD04D04BD00AD0001C38F450954095BB
:10161000309521953F4F4F4F5F4F0895F6F79095C6
:101620008095709561957F4F8F4F9F4F08952F92B2
:101630003F924F925F926F927F928F929F92AF9262
:10164000BF92CF92DF92EF92FF920F931F93CF93AF
:10165000DF93CDB7DEB7CA1BDB0B0FB6F894DEBF46
:101660000FBECDBF09942A88398848885F846E846C
:101670007D848C849B84AA84B984C884DF80EE80B6
:10168000FD800C811B81AA81B981CE0FD11D0FB6BF
:10169000F894DEBF0FBECDBFED010895A1E21A2E72
:1016A000AA1BBB1BFD010DC0AA1FBB1FEE1FFF1F06
:1016B000A217B307E407F50720F0A21BB30BE40B56
:1016C000F50B661F771F881F991F1A9469F760959D
:1016D0007095809590959B01AC01BD01CF01089557
:0416E000F894FFCFAC
:1016E40053696D6F6E205361797300507265737323
:1016F40020616E7920627574746F6E0093024B02E0
:101704000B02ED01B80153636F72653A2025640042
:1017140047414D45204F564552210001000000002D
:04000005008000A5D2
:00000001FF
