:100000000C942A000C9447000C9447000C94470071
:100010000C9447000C9447000C9447000C94470044
:100020000C9447000C9447000C9447000C94470034
:100030000C9447000C9447000C9447000C94470024
:100040000C9447000C9447000C9447000C94470014
:100050000C94470011241FBECFE5D8E0DEBFCDBF12
:1000600010E0A0E6B0E0ECE1F6E102C005900D92F0
:10007000AC3AB107D9F710E0ACEAB0E001C01D928C
:10008000A63DB107E1F70E94CC040C940C0B0C9434
:100090000000DF93CF9300D000D000D0CDB7DEB703
:1000A00080919100909192009E838D838091B60003
:1000B0009091B7009C838B838091B4009091B500A0
:1000C0009A8389838091BA009091BB009C01220F92
:1000D000331FC901880F991F880F991F280F391FD7
:1000E0008091BC009091BD00820F931F909392006D
:1000F000809391008091BE009091BF009C01220FDF
:10010000331FC901880F991F880F991F280F391FA6
:100110008091C0009091C100820F931F9093B7000F
:100120008093B6008091C2009091C3009C01220F81
:10013000331FC901880F991F880F991F280F391F76
:100140008091C4009091C500820F931F9093B500D9
:100150008093B40080919100909192008831910534
:1001600070F48091B6009091B7008C33910538F40B
:100170008091B4009091B5008C33910540F10E94BC
:10018000380981E060E00E9443098BE990E00E9419
:10019000B40981E060E00E9443091092AD00109222
:1001A000AC001092B1001092B0008D819E819093AE
:1001B0009200809391008B819C819093B7008093F3
:1001C000B60089819A819093B5008093B400109213
:1001D000B30026960FB6F894DEBF0FBECDBFCF9109
:1001E000DF910895DF93CF9300D000D000D0CDB73A
:1001F000DEB780919500909196009E838D838091CB
:100200009300909194009C838B83809197009091B0
:100210009800A0919900B0919A009A838983809167
:10022000C6009091C7009C01220F331FC901880F9F
:10023000991F880F991F280F391F8091C80090912E
:10024000C900820F931F9093960080939500809130
:10025000CA009091CB009C01220F331FC901880F67
:10026000991F880F991F280F391F8091CC009091FA
:10027000CD00820F931F9093940080939300209160
:10028000CE003091CF0088EE93E0289FA001299FF7
:10029000500D389F500D11242091D0003091D10085
:1002A00084E690E0BC01269FC001279F900D369FF9
:1002B000900D1124480F591F8091D2009091D300C6
:1002C0009C01220F331FC901880F991F880F991FA6
:1002D000820F931F9A01280F391F8091D4009091AB
:1002E000D500820F931FCC01A0E0B0E0809397006F
:1002F00090939800A0939900B0939A0080919700F2
:1003000090919800A0919900B0919A00837090709C
:10031000A070B0700097A105B105B1F4809197006D
:1003200090919800A0919900B0919A0024E630E055
:1003300040E050E0BC01CD010E94EA0ADC01CB01A3
:100340000097A105B105B9F48091970090919800AC
:10035000A0919900B0919A0020E931E040E050E08E
:10036000BC01CD010E94EA0ADC01CB010097A10586
:10037000B10509F04CC080919500909196008D30A8
:100380009105A8F480919500909196000197880FAF
:10039000991FFC01E858FF4F808191819C01809159
:1003A0009300909194002817390708F07AC00E94B2
:1003B000380980E060E00E94430982EA90E00E94F0
:1003C000B40980E060E00E9443091092AD001092F1
:1003D000AC001092B1001092B0008D819E8190937C
:1003E0009600809395008B819C81909394008093DC
:1003F000930089819A81CC01A0E0B0E080939700BE
:1004000090939800A0939900B0939A004AC080916D
:100410009500909196008D309105A0F48091950003
:10042000909196000197880F991FFC01E05AFF4FA9
:10043000808191819C018091930090919400281774
:10044000390778F50E94380980E060E00E9443098E
:1004500082EA90E00E94B40980E060E00E944309D3
:100460001092AD001092AC001092B1001092B0004A
:100470008D819E8190939600809395008B819C81C5
:10048000909394008093930089819A81CC01A0E09D
:10049000B0E08093970090939800A0939900B09358
:1004A0009A001092B20026960FB6F894DEBF0FBEE7
:1004B000CDBFCF91DF910895DF93CF9300D0CDB71B
:1004C000DEB780919100909192002AE030E0B9016E
:1004D0000E94D60ACB01805D8093B8008091910084
:1004E000909192002AE030E0B9010E94D60A805D26
:1004F0008093B90081E060E00E9443098091B800D8
:100500000E947D098091B9000E947D0981E062E02E
:100510000E9443098AE30E947D098091B600909170
:10052000B7002AE030E0B9010E94D60ACB01805D15
:100530008093B8008091B6009091B7002AE030E037
:10054000B9010E94D60A805D8093B90081E063E022
:100550000E9443098091B8000E947D098091B900F2
:100560000E947D0981E065E00E9443098AE30E94C0
:100570007D098091B4009091B5002AE030E0B90186
:100580000E94D60ACB01805D8093B8008091B400B0
:100590009091B5002AE030E0B9010E94D60A805D52
:1005A0008093B90081E066E00E9443098091B80021
:1005B0000E947D098091B9000E947D09809195007B
:1005C000909196002AE030E0B9010E94D60ACB0152
:1005D000805D8093B80080919500909196002AE00C
:1005E00030E0B9010E94D60A805D8093B90080E0B6
:1005F00060E00E9443098091B8000E947D098091CB
:10060000B9000E947D0980E062E00E9443098FE208
:100610000E947D0980919300909194002AE030E03F
:10062000B9010E94D60ACB01805D8093B800809109
:100630009300909194002AE030E0B9010E94D60A1C
:10064000805D8093B90080E063E00E94430980915F
:10065000B8000E947D098091B9000E947D0980E068
:1006600065E00E9443098FE20E947D098091970016
:1006700090919800A0919900B0919A0028EE33E0F3
:1006800040E050E0BC01CD010E94EA0ADA01C90154
:10069000805D8A838091970090919800A091990045
:1006A000B0919A0028EE33E040E050E0BC01CD016B
:1006B0000E94EA0ADC01CB0124E630E040E050E091
:1006C000BC01CD010E94EA0ADA01C901805D89837B
:1006D0008091970090919800A0919900B0919A0014
:1006E00024E630E040E050E0BC01CD010E94EA0A7F
:1006F000DC01CB012AE030E040E050E0BC01CD015C
:100700000E94EA0ADA01C901805D8093B8008091F5
:10071000970090919800A0919900B0919A002AE0DA
:1007200030E040E050E0BC01CD010E94EA0ADC016B
:10073000CB01805D8093B90080E066E00E944309B0
:100740008A810E947D0989810E947D098091B8007B
:100750000E947D098091B9000E947D090F900F9041
:10076000CF91DF910895DF93CF93CDB7DEB780911E
:10077000B4009091B50001969093B5008093B400B9
:100780008091B4009091B5008C33910509F0FDC0C3
:100790001092B5001092B4008091B6009091B7000D
:1007A00001969093B7008093B6008091B600909127
:1007B000B7008C33910509F0E8C01092B700109291
:1007C000B6008091910090919200019690939200D2
:1007D00080939100809191009091920088319105D1
:1007E00009F0D3C010929200109291008091930072
:1007F000909194000196909394008093930080913F
:10080000970090919800A0919900B0919A00837000
:100810009070A070B0700097A105B105B1F48091FF
:10082000970090919800A0919900B0919A0024E6C9
:1008300030E040E050E0BC01CD010E94EA0ADC015A
:10084000CB010097A105B105B9F480919700909173
:100850009800A0919900B0919A0020E931E040E021
:1008600050E0BC01CD010E94EA0ADC01CB010097F7
:10087000A105B10509F046C08091950090919600C0
:100880000197880F991FFC01E858FF4F80819181E3
:100890009C0180919300909194002817390708F0EB
:1008A00074C081E090E090939400809393008091D5
:1008B00095009091960001969093960080939500F4
:1008C00080919500909196008D30910508F45DC05F
:1008D00081E090E09093960080939500809197003E
:1008E00090919800A0919900B0919A000196A11D55
:1008F000B11D8093970090939800A0939900B093B6
:100900009A0043C080919500909196000197880FBE
:10091000991FFC01E05AFF4F808191819C018091D9
:100920009300909194002817390778F581E090E0C2
:1009300090939400809393008091950090919600FD
:1009400001969093960080939500809195009091E8
:1009500096008D309105C8F081E090E0909396006C
:10096000809395008091970090919800A0919900B4
:10097000B0919A000196A11DB11D809397009093AC
:100980009800A0939900B0939A0084E690E00E94AA
:100990000E08CF91DF910895DF93CF93CDB7DEB7E7
:1009A0000E94F8080E9403080E94840A8D30910575
:1009B00011F51092AF001092AE001092AD0010929F
:1009C000AC000E94380980E060E00E94430982EA9E
:1009D00090E00E94B4091092900080E060E00E94D4
:1009E000430981E08093B2001092B3001092B100ED
:1009F0001092B00028C00E94840A8930910519F530
:100A000081E090E09093AF008093AE001092AD0033
:100A10001092AC000E94380981E060E00E94430916
:100A20008BE990E00E94B4091092900081E060E0B0
:100A30000E94430981E08093B3001092B2001092AB
:100A4000B1001092B00080919000813029F40E9492
:100A5000B3030E945C02D2C20E94840A82309105D4
:100A600081F48091B200882311F00E94F2008091FD
:100A7000B300882311F00E94490081E08093900028
:100A800082C20E94840A83309105A9F580E30E9406
:100A90007D098091B200882361F08091B00090912F
:100AA000B100880F991FFC01EA53FF4F1182108299
:100AB0000FC08091B300882359F08091B0009091CD
:100AC000B100880F991FFC01E654FF4F118210827C
:100AD0008091B0009091B10001969093B100809305
:100AE000B0008091AC009091AD0001969093AD0064
:100AF0008093AC0048C20E94840A84309105B1F40E
:100B00000E9438091092AD001092AC001092AF0014
:100B10001092AE001092B3001092B20081E0809368
:100B200090001092B1001092B0002DC20E94840A71
:100B300086309105C9F589E30E947D098091B20054
:100B4000882371F08091B0009091B100880F991FB7
:100B5000FC01EA53FF4F89E090E09183808311C04C
:100B60008091B300882369F08091B0009091B1002A
:100B7000880F991FFC01E654FF4F89E090E09183B4
:100B800080838091B0009091B10001969093B10064
:100B90008093B0008091AC009091AD00019690934D
:100BA000AD008093AC00EFC10E94840A87309105AC
:100BB000C9F588E30E947D098091B200882371F015
:100BC0008091B0009091B100880F991FFC01EA5309
:100BD000FF4F88E090E09183808311C08091B30043
:100BE000882369F08091B0009091B100880F991F1F
:100BF000FC01E654FF4F88E090E091838083809170
:100C0000B0009091B10001969093B1008093B00034
:100C10008091AC009091AD0001969093AD008093CF
:100C2000AC00B1C10E94840A88309105C9F587E300
:100C30000E947D098091B200882371F08091B000FC
:100C40009091B100880F991FFC01EA53FF4F87E094
:100C500090E09183808311C08091B300882369F074
:100C60008091B0009091B100880F991FFC01E6546B
:100C7000FF4F87E090E0918380838091B000909156
:100C8000B10001969093B1008093B0008091AC00C8
:100C90009091AD0001969093AD008093AC0073C12C
:100CA0000E94840A8A309105C9F586E30E947D0975
:100CB0008091B200882371F08091B0009091B100D2
:100CC000880F991FFC01EA53FF4F86E090E0918363
:100CD000808311C08091B300882369F08091B000B7
:100CE0009091B100880F991FFC01E654FF4F86E0F8
:100CF00090E0918380838091B0009091B100019643
:100D00009093B1008093B0008091AC009091AD00C1
:100D100001969093AD008093AC0035C10E94840A87
:100D20008B309105C9F585E30E947D098091B20061
:100D3000882371F08091B0009091B100880F991FC5
:100D4000FC01EA53FF4F85E090E09183808311C05E
:100D50008091B300882369F08091B0009091B10038
:100D6000880F991FFC01E654FF4F85E090E09183C6
:100D700080838091B0009091B10001969093B10072
:100D80008093B0008091AC009091AD00019690935B
:100D9000AD008093AC00F7C00E94840A8C309105AE
:100DA000C9F584E30E947D098091B200882371F027
:100DB0008091B0009091B100880F991FFC01EA5317
:100DC000FF4F84E090E09183808311C08091B30055
:100DD000882369F08091B0009091B100880F991F2D
:100DE000FC01E654FF4F84E090E091838083809182
:100DF000B0009091B10001969093B1008093B00043
:100E00008091AC009091AD0001969093AD008093DD
:100E1000AC00B9C00E94840A8E309105C9F583E305
:100E20000E947D098091B200882371F08091B0000A
:100E30009091B100880F991FFC01EA53FF4F83E0A6
:100E400090E09183808311C08091B300882369F082
:100E50008091B0009091B100880F991FFC01E65479
:100E6000FF4F83E090E0918380838091B000909168
:100E7000B10001969093B1008093B0008091AC00D6
:100E80009091AD0001969093AD008093AC007BC033
:100E90000E94840A8F309105C9F582E30E947D0982
:100EA0008091B200882371F08091B0009091B100E0
:100EB000880F991FFC01EA53FF4F82E090E0918375
:100EC000808311C08091B300882369F08091B000C5
:100ED0009091B100880F991FFC01E654FF4F82E00A
:100EE00090E0918380838091B0009091B100019651
:100EF0009093B1008093B0008091AC009091AD00D0
:100F000001969093AD008093AC003DC00E94840A8E
:100F100080319105C1F581E30E947D098091B20085
:100F2000882371F08091B0009091B100880F991FD3
:100F3000FC01EA53FF4F81E090E09183808311C070
:100F40008091B300882369F08091B0009091B10046
:100F5000880F991FFC01E654FF4F81E090E09183D8
:100F600080838091B0009091B10001969093B10080
:100F70008093B0008091AC009091AD000196909369
:100F8000AD008093AC008091B3008823D1F08091B4
:100F9000AC009091AD008630910584F11092AD00C7
:100FA0001092AC008091AE009091AF00282F8091FC
:100FB000AC009091AD00982F822F692F0E944309B9
:100FC0001DC08091B2008823C9F08091AC0090913F
:100FD000AD008830910594F01092AD001092AC00F5
:100FE0008091AE009091AF00282F8091AC0090913D
:100FF000AD00982F822F692F0E94430989E190E06C
:101000000E940E08D1CCDF93CF93CDB7DEB7E1E4D9
:10101000F0E08FE08083CF91DF910895DF93CF934D
:1010200000D00F92CDB7DEB79A838983E3E5F0E075
:1010300083E0808315C0E2E5F0E083E88083A8E5E3
:10104000B0E0E8E5F0E0808181608C93A895E8E568
:10105000F0E08081882F90E0817090700097B9F364
:101060001B8289819A81009711F081E08B838981AD
:101070009A8101979A8389838B818823E1F6E3E53E
:10108000F0E010820F900F900F90CF91DF910895B4
:10109000DF93CF9300D0CDB7DEB78A838A818823D0
:1010A00041F0A8E3B0E0E8E3F0E0808181608C9358
:1010B00007C0A8E3B0E0E8E3F0E080818E7F8C9386
:1010C000A8E3B0E0E8E3F0E0808182608C930E94C6
:1010D0008C08A8E3B0E0E8E3F0E0808184608C93C2
:1010E0000E9482080E948C088983A8E3B0E0E8E3AC
:1010F000F0E080818B7F8C9389810F900F90CF914E
:10110000DF910895DF93CF93CDB7DEB700000000E5
:101110000000CF91DF910895DF93CF93CDB7DEB775
:10112000E1E3F0E01082E0E3F0E08081CF91DF9135
:101130000895DF93CF9300D0CDB7DEB789836A835C
:101140008A81882341F0A8E3B0E0E8E3F0E0808101
:1011500081608C9307C0A8E3B0E0E8E3F0E0808111
:101160008E7F8C93A8E3B0E0E8E3F0E080818D7F90
:101170008C9389810E94D108A8E3B0E0E8E3F0E015
:10118000808184608C930E948208A8E3B0E0E8E349
:10119000F0E080818B7F8C930F900F90CF91DF9147
:1011A0000895DF93CF930F92CDB7DEB78983E2E343
:1011B000F0E089818083E1E3F0E08FEF80830F909E
:1011C000CF91DF910895DF93CF9300D0CDB7DEB7F5
:1011D00089836A8380E00E9448088823DCF3898140
:1011E0006A810E9499080F900F90CF91DF91089526
:1011F000DF93CF93CDB7DEB7A7E3B0E0E7E3F0E04E
:10120000808181608C93A7E3B0E0E7E3F0E0808128
:1012100082608C93A7E3B0E0E7E3F0E08081846034
:101220008C9380E190E00E940E0880E360E00E94D1
:10123000990885E090E00E940E0880E360E00E943B
:10124000990881E090E00E940E088CE360E00E9423
:10125000E3088CE060E00E94E30886E060E00E9422
:10126000E30881E060E00E94E308CF91DF910895F8
:10127000DF93CF93CDB7DEB781E060E00E94E30853
:10128000CF91DF910895DF93CF9300D000D0CDB7F9
:10129000DEB78A836B838A81882F90E09C01220FBE
:1012A000331F220F331F220F331FC901880F991FCD
:1012B000880F991F820F931F982F8B81890F898325
:1012C00082E060E00E94E30804C084E160E00E94E4
:1012D000E30889818C838C81882311F081E08C83E1
:1012E0008C81998191509983882379F70F900F9081
:1012F0000F900F90CF91DF910895DF93CF930F92CE
:10130000CDB7DEB78983898161E00E94E3080F9041
:10131000CF91DF910895DF93CF9300D000D000D01C
:10132000CDB7DEB79E838D8304C08C8161E00E94BF
:10133000E3088D819E819B838A838D819E810196A6
:101340009E838D83EA81FB818491898389818C834B
:101350008C81882351F726960FB6F894DEBF0FBE16
:10136000CDBFCF91DF910895DF93CF9300D000D010
:10137000CDB7DEB79B838A8304C0898161E00E9478
:10138000E308EA81FB818081898389818C838C8158
:10139000882311F081E08C838C812A813B812F5F2F
:1013A0003F4F3B832A83882341F70F900F900F9084
:1013B0000F90CF91DF910895DF93CF93CDB7DEB734
:1013C00029970FB6F894DEBF0FBECDBF9E838D83E5
:1013D00078876F831C821B8226C0AAE3B0E0EAE311
:1013E000F0E08081282F81E090E00B8002C0880F20
:1013F000991F0A94E2F7809582238C93ABE3B0E0C7
:10140000EBE3F0E08081282F81E090E00B8002C0C8
:10141000880F991F0A94E2F7822B8C938B819C8111
:1014200001969C838B838B819C8184309105ACF2E7
:1014300084E090E09A83898325C0AAE3B0E0EAE3E0
:10144000F0E08081282F81E090E0098002C0880FC1
:10145000991F0A94E2F7822B8C93ABE3B0E0EBE3A5
:10146000F0E08081282F81E090E0098002C0880FA1
:10147000991F0A94E2F7822B8C9389819A810196B5
:101480009A83898389819A8188309105B4F2ABE38C
:10149000B0E0EBE3F0E08081282F81E090E00F8066
:1014A00002C0880F991F0A94E2F7809582238C93DB
:1014B000E9E3F0E08081882F90E00D8002C09595EF
:1014C00087950A94E2F781709070882379F4E9E3B4
:1014D000F0E08081882F90E00F8002C0959587957D
:1014E0000A94E2F781709070882311F0198602C087
:1014F00081E08987898529960FB6F894DEBF0FBEF3
:10150000CDBFCF91DF910895DF93CF93CDB7DEB7F5
:1015100028970FB6F894DEBF0FBECDBF1A8219828E
:101520001E821D8231C08D819E8104969A8389839B
:101530001C821B821FC08B819C8129813A81B90149
:101540000E94DC09882389F08D819E819C01220FF5
:10155000331F220F331F8B819C81820F931F9C01AD
:101560002F5F3F4F38872F8316C08B819C81019658
:101570009C838B838B819C8184309105E4F28D81E7
:101580009E8101969E838D838D819E8184309105FD
:1015900054F218861F828F81988528960FB6F8948A
:1015A000DEBF0FBECDBFCF91DF910895AA1BBB1B3D
:1015B00051E107C0AA1FBB1FA617B70710F0A61B53
:1015C000B70B881F991F5A95A9F780959095BC0174
:1015D000CD010895A1E21A2EAA1BBB1BFD010DC06F
:1015E000AA1FBB1FEE1FFF1FA217B307E407F507D3
:1015F00020F0A21BB30BE40BF50B661F771F881FAF
:10160000991F1A9469F760957095809590959B0144
:0C161000AC01BD01CF010895F894FFCF9C
:10161C001F001C001F001E001F001E001F001F00CB
:10162C001E001F001E001F001F001D001F001E00BB
:10163C001F001E001F001F001E001F001E001F00A9
:10164C00010100010001000100000048484D4D530C
:0C165C0053004D4D4444595959590000A9
:0400000500800090E7
:00000001FF
