:100000000C942A000C943F000C943F000C943F0089
:100010000C943F000C943F000C943F000C943F0064
:100020000C943F000C943F000C943F000C943F0054
:100030000C943F000C943F000C943F000C943F0044
:100040000C943F000C943F000C943F000C943F0034
:100050000C943F0011241FBECFE5D8E0DEBFCDBF1A
:1000600014E0A0E6B0E0E8E3FDE002C005900D92E8
:10007000A233B107D9F70E9441000C949A060C9460
:100080000000DF93CF93CDB7DEB7A7E3B0E0E7E39F
:10009000F0E0808181608C930E9499010E94D901D7
:1000A00080E060E00E94E40188ED93E00E94550248
:1000B00081E060E00E94E4018CEE93E00E94550232
:1000C0000E94250380319105D9F40E94D90180E076
:1000D00062E00E94E4018DEF93E00E94550281E00E
:1000E00060E00E94E4018AE094E00E94550280E60C
:1000F00090E065E570E00E944D040E94D9011FC0A8
:100100000E9425038F309105D1F40E94D90180E02F
:1001100062E00E94E4018BE194E00E94550281E0DC
:1001200062E00E94E40186E294E00E94550288E0C9
:1001300093E06AE170E00E944D040E94D90182E3DD
:1001400090E00E94AF00ACCFDF93CF93CDB7DEB786
:10015000E1E4F0E08FE08083CF91DF910895DF93B9
:10016000CF9300D00F92CDB7DEB79A838983E3E5B2
:10017000F0E082E0808315C0E2E5F0E086EF808366
:10018000A8E5B0E0E8E5F0E0808181608C93A89577
:10019000E8E5F0E08081882F90E081709070009712
:1001A000B9F31B8289819A81009711F081E08B83DA
:1001B00089819A8101979A8389838B818823E1F6CB
:1001C000E3E5F0E010820F900F900F90CF91DF9158
:1001D0000895DF93CF9300D0CDB7DEB78A838A81AD
:1001E000882341F0A8E3B0E0E8E3F0E0808182609A
:1001F0008C9307C0A8E3B0E0E8E3F0E080818D7F56
:100200008C93A8E3B0E0E8E3F0E0808184608C9315
:100210000E942D01A8E3B0E0E8E3F0E0808188606F
:100220008C930E9423010E942D018983A8E3B0E0F2
:10023000E8E3F0E08081877F8C9389810F900F90B5
:10024000CF91DF910895DF93CF93CDB7DEB7000054
:1002500000000000CF91DF910895DF93CF93CDB7D9
:10026000DEB7E1E3F0E01082E0E3F0E08081CF91DF
:10027000DF910895DF93CF9300D0CDB7DEB78983A8
:100280006A838A81882341F0A8E3B0E0E8E3F0E0E4
:10029000808182608C9307C0A8E3B0E0E8E3F0E0DF
:1002A00080818D7F8C93A8E3B0E0E8E3F0E080816B
:1002B0008B7F8C9389810E947201A8E3B0E0E8E310
:1002C000F0E0808188608C930E942301A8E3B0E075
:1002D000E8E3F0E08081877F8C930F900F90CF91BF
:1002E000DF910895DF93CF930F92CDB7DEB7898367
:1002F000E2E3F0E089818083E1E3F0E08FEF808347
:100300000F90CF91DF910895DF93CF9300D0CDB7B9
:10031000DEB789836A8380E00E94E9008823DCF3EA
:1003200089816A810E943A010F900F90CF91DF91ED
:100330000895DF93CF93CDB7DEB7A7E3B0E0E7E34F
:10034000F0E0808182608C93A7E3B0E0E7E3F0E027
:10035000808184608C93A7E3B0E0E7E3F0E08081E4
:1003600088608C9380E190E00E94AF0080E360E0C1
:100370000E943A0185E090E00E94AF0080E360E0D7
:100380000E943A0181E090E00E94AF008CE360E0BF
:100390000E9484018CE060E00E94840186E060E0BD
:1003A0000E94840181E060E00E948401CF91DF918E
:1003B0000895DF93CF93CDB7DEB781E060E00E9470
:1003C0008401CF91DF910895DF93CF9300D000D0C7
:1003D000CDB7DEB78A836B838A81882F90E09C013A
:1003E000220F331F220F331F220F331FC901880F23
:1003F000991F880F991F820F931F982F8B81890F48
:10040000898382E060E00E94840104C084E160E0AE
:100410000E94840189818C838C81882311F081E082
:100420008C838C81998191509983882379F70F90DF
:100430000F900F900F90CF91DF910895DF93CF939E
:100440000F92CDB7DEB78983898161E00E94840174
:100450000F90CF91DF910895DF93CF9300D000D01C
:1004600000D0CDB7DEB79E838D8304C08C8161E060
:100470000E9484018D819E819B838A838D819E81D0
:1004800001969E838D83EA81FB8184918983898192
:100490008C838C81882351F726960FB6F894DEBFA3
:1004A0000FBECDBFCF91DF910895DF93CF9300D0E2
:1004B00000D0CDB7DEB79B838A8304C0898161E019
:1004C0000E948401EA81FB818081898389818C83F8
:1004D0008C81882311F081E08C838C812A813B817F
:1004E0002F5F3F4F3B832A83882341F70F900F9064
:1004F0000F900F90CF91DF910895DF93CF93CDB7F9
:10050000DEB729970FB6F894DEBF0FBECDBF9E832E
:100510008D8378876F831C821B8226C0A4E3B0E0A2
:10052000E4E3F0E08081282F81E090E00B8002C0BE
:10053000880F991F0A94E2F7809582238C93A5E394
:10054000B0E0E5E3F0E08081282F81E090E00B80CF
:1005500002C0880F991F0A94E2F7822B8C938B813B
:100560009C8101969C838B838B819C818430910537
:10057000ACF284E090E09A83898325C0A4E3B0E0E4
:10058000E4E3F0E08081282F81E090E0098002C060
:10059000880F991F0A94E2F7822B8C93A5E3B0E0B1
:1005A000E5E3F0E08081282F81E090E0098002C03F
:1005B000880F991F0A94E2F7822B8C9389819A8184
:1005C00001969A83898389819A8188309105B4F252
:1005D000A5E3B0E0E5E3F0E08081282F81E090E042
:1005E0000F8002C0880F991F0A94E2F7809582233A
:1005F0008C93E3E3F0E08081882F90E00D8002C0CF
:10060000959587950A94E2F781709070882379F424
:10061000E3E3F0E08081882F90E00F8002C09595A1
:1006200087950A94E2F781709070882311F01986FB
:1006300002C081E08987898529960FB6F894DEBFCC
:100640000FBECDBFCF91DF910895DF93CF93CDB78C
:10065000DEB728970FB6F894DEBF0FBECDBF1A8263
:1006600019821E821D8231C08D819E8104969A83DB
:1006700089831C821B821FC08B819C8129813A81C6
:10068000B9010E947D02882389F08D819E819C01A1
:10069000220F331F220F331F8B819C81820F931FE8
:1006A0009C012F5F3F4F38872F8316C08B819C8121
:1006B00001969C838B838B819C8184309105E4F22D
:1006C0008D819E8101969E838D838D819E81843054
:1006D000910554F218861F828F81988528960FB64F
:1006E000F894DEBF0FBECDBFCF91DF910895EF929A
:1006F000FF920F931F93DF93CF93CDB7DEB762972F
:100700000FB6F894DEBF0FBECDBF6B877C878D8799
:100710009E872F87388B498B5A8B8B859C85AD851F
:10072000BE85BC01CD010E940604DC01CB018F8394
:100730009887A987BA876F85788989899A890E945D
:10074000AB057B018C012F81388549855A85CA010B
:10075000B9010E94AC04DC01CB019C01AD01C801D0
:10076000B7010E941005DC01CB01BC01CD010E9444
:100770007805DC01CB018B839C83AD83BE831A8219
:10078000198227C0A8E3B0E0E8E3F0E0808181604F
:100790008C936F81788589859A850E947D05DC011F
:1007A000CB010E94AF00A8E3B0E0E8E3F0E0808175
:1007B0008E7F8C936F81788589859A850E947D05CF
:1007C000DC01CB010E94AF0089819A8101969A8356
:1007D000898389819A819C01442737FD4095542F54
:1007E0008B819C81AD81BE81281739074A075B0741
:1007F0004CF262960FB6F894DEBF0FBECDBFCF911C
:10080000DF911F910F91FF90EF900895DF93CF93A9
:10081000CDB7DEB72C970FB6F894DEBF0FBECDBFB5
:1008200069877A878B879C8760E070E080E89FE328
:1008300029853A854B855C850E941005DC01CB013A
:100840008D839E83AF83B8876D817E818F819885EC
:1008500020E030E040E050E40E941005DC01CB01D4
:10086000BC01CD0120E030E44CE156E40E943706A3
:10087000DC01CB0189839A83AB83BC8389819A8114
:10088000AB81BC81BC01CD012C960FB6F894DEBFC4
:100890000FBECDBFCF91DF910895EF92FF920F93DE
:1008A0001F93DF93CF9300D000D000D0CDB7DEB739
:1008B0009C838B837E836D831A82198238C08981E1
:1008C0009A819C01220F331F220F331F220F331FE7
:1008D0008B819C81FC01E20FF31FE080F18002819B
:1008E000138189819A819C01220F331F220F331FAC
:1008F000220F331F8B819C81FC01E20FF31F2481A7
:10090000358146815781C801B7010E9477030E9453
:1009100025038930910531F48D819E819A838983E5
:100920000E94D90189819A8101969A8389832981BC
:100930003A818D819E81281739070CF226960FB6D1
:10094000F894DEBF0FBECDBFCF91DF911F910F9105
:10095000FF90EF9008955058BB27AA270ED04DC1A5
:100960003ED130F043D120F031F49F3F11F41EF41A
:1009700033C10EF4E095E7FB29C1E92F4FD180F395
:10098000BA17620773078407950718F071F49EF58C
:1009900067C10EF4E0950B2EBA2FA02D0B01B90103
:1009A00090010C01CA01A0011124FF27591B99F0E5
:1009B000593F50F4503E68F11A16F040A22F232FF1
:1009C000342F4427585FF3CF469537952795A79541
:1009D000F0405395C9F77EF41F16BA0B620B730BE8
:1009E000840BBAF09150A1F0FF0FBB1F661F771F59
:1009F000881FC2F70EC0BA0F621F731F841F48F40E
:100A0000879577956795B795F7959E3F08F0B3CF93
:100A10009395880F08F09927EE0F9795879508957D
:100A20000CD0EBC0E3D040F0DAD030F021F45F3FDF
:100A300019F0CCC0511115C1CFC0F0D098F3992353
:100A4000C9F35523B1F3951B550BBB27AA27621792
:100A50007307840738F09F5F5F4F220F331F441FD7
:100A6000AA1FA9F333D00E2E3AF0E0E830D091500F
:100A70005040E695001CCAF729D0FE2F27D0660FFC
:100A8000771F881FBB1F261737074807AB07B0E83B
:100A900009F0BB0B802DBF01FF2793585F4F2AF051
:100AA0009E3F510568F092C0DCC05F3FECF3983E7A
:100AB000DCF3869577956795B795F7959F5FC9F7AE
:100AC000880F911D9695879597F90895E1E0660F37
:100AD000771F881FBB1F621773078407BA0720F0B0
:100AE000621B730B840BBA0BEE1F88F7E095089519
:100AF00004D06894B111B5C0089598D088F09F577C
:100B000090F0B92F9927B751A0F0D1F0660F771F59
:100B1000881F991F1AF0BA95C9F712C0B13081F039
:100B20009FD0B1E008959CC0672F782F8827B85FC9
:100B300039F0B93FCCF3869577956795B395D9F79A
:100B40003EF490958095709561957F4F8F4F9F4FA4
:100B50000895E89409C097FB3EF4909580957095B0
:100B600061957F4F8F4F9F4F9923A9F0F92F96E9F9
:100B7000BB279395F695879577956795B795F1116E
:100B8000F8CFFAF4BB0F11F460FF1BC06F5F7F4F0B
:100B90008F4F9F4F16C0882311F096E911C077231D
:100BA00021F09EE8872F762F05C0662371F096E826
:100BB000862F70E060E02AF09A95660F771F881FF5
:100BC000DAF7880F9695879597F9089597F99F67B3
:100BD00080E870E060E008959FEF80EC08950024C5
:100BE0000A941616170618060906089500240A9492
:100BF00012161306140605060895092E0394000C18
:100C000011F4882352F0BB0F40F4BF2B11F460FFA6
:100C100004C06F5F7F4F8F4F9F4F089557FD9058CF
:100C2000440F551F59F05F3F71F04795880F97FBB0
:100C3000991F61F09F3F79F087950895121613066A
:100C40001406551FF2CF4695F1DF08C01616170699
:100C50001806991FF1CF86957105610508940895CE
:100C6000E894BB2766277727CB0197F908950BD027
:100C7000C4CFB5DF28F0BADF18F0952309F0A6CF6E
:100C8000ABCF1124EECFCADFA0F3959FD1F3950F20
:100C900050E0551F629FF001729FBB27F00DB11D00
:100CA000639FAA27F00DB11DAA1F649F6627B00D90
:100CB000A11D661F829F2227B00DA11D621F739F79
:100CC000B00DA11D621F839FA00D611D221F749F87
:100CD0003327A00D611D231F849F600D211D822FCE
:100CE000762F6A2F11249F5750408AF0E1F0882315
:100CF0004AF0EE0FFF1FBB1F661F771F881F915022
:100D00005040A9F79E3F510570F060CFAACF5F3FDA
:100D1000ECF3983EDCF3869577956795B795F79554
:100D2000E7959F5FC1F7FE2B880F911D96958795DC
:080D300097F90895F894FFCF34
:100D38002F9DAE43DC0500000000DC43DC0500000D
:100D480006F1F643B80B00002F9DAE43DC0500000A
:100D58000000DC43DC05000006F1F643B80B000098
:100D68002F9DAE43DC0500000000DC43DC050000DD
:100D780006F1F643DC05000052D02444DC050000EF
:100D88001FD51244B80B000006F1F643DC0500003D
:100D980010D00244DC05000006F1F643DC05000033
:100DA8005CFFC343DC05000062D0A4434C1D000077
:100DB800D7D39243DC05000062D0A443DC050000D1
:100DC8005CFFC343DC05000062D0A4432823000075
:100DD8002F9DAE43DC0500000000DC43DC0500006D
:100DE80006F1F643B80B00002F9DAE43DC0500006A
:100DF8000000DC43DC05000006F1F643B80B0000F8
:100E08002F9DAE43DC0500000000DC43DC0500003C
:100E180006F1F643DC05000052D02444DC0500004E
:100E28001FD51244B80B000006F1F643DC0500009C
:100E380010D00244DC05000052D02444DC05000038
:100E480006F1F643DC0500005CFFC3434C1D0000BF
:100E580006F1F643DC0500005CFFC343DC05000037
:100E6800D7D39243DC05000062D0A44328230000B6
:100E7800D7D39243DC05000062D0A443DC05000010
:100E88002F9DAE43B80B00005CFFC343DC05000098
:100E98000000DC43DC05000006F1F643B80B000057
:100EA80010D00244DC05000006F1F643DC05000022
:100EB80062D0A443282300002F9DAE43DC05000028
:100EC8005CFFC343DC0500000000DC43B80B0000F6
:100ED80006F1F643DC05000010D00244DC050000F2
:100EE8001FD51244B80B000052D02444DC05000082
:100EF8002F9D2E44DC0500006DFF4344282300008D
:100F0800D7D39243DC05000062D0A443DC0500007F
:100F18002F9DAE43B80B00005CFFC343DC05000007
:100F28000000DC43DC05000006F1F643B80B0000C6
:100F380010D00244DC05000006F1F643DC05000091
:100F480062D0A443282300002F9DAE43DC05000097
:100F580062D0A443DC0500000000DC43DC0500008F
:100F68005CFFC343DC05000006F1F643DC05000026
:100F78000000DC43DC05000010D00244DC05000062
:100F880006F1F643DC0500001FD51244DC0500001D
:100F980010D00244DC05000052D02444DC050000D7
:100FA8001FD51244DC0500002F9D2E44DC050000EF
:100FB80052D02444DC05000052D02444EE02000044
:100FC8002F9D2E44DC0500001FD51244EE020000C0
:100FD80052D02444E02E000062D0A443B80B000095
:100FE800D7D39243B80B000021D08243B80B00003E
:100FF800D7D39243B80B000062D0A443B80B0000CB
:1010080062D0A443B80B000062D0A443701700005C
:10101800D7D39243B80B0000D7D39243B80B000044
:10102800D7D392437017000062D0A443B80B0000D6
:101038005CFFC343B80B00005CFFC343701700009C
:1010480062D0A443B80B0000D7D39243B80B00007A
:1010580021D08243B80B0000D7D39243B80B0000CD
:1010680062D0A443B80B000062D0A443B80B0000C0
:1010780062D0A443B80B000021D08243B80B000013
:10108800D7D39243B80B0000D7D39243B80B0000D4
:1010980062D0A443B80B0000D7D39243B80B00002A
:1010A80021D08243E02E0000507265737320312EE8
:1010B80020536172696127732E2E2E00507265735A
:1010C8007320322E204D6172792E2E2E00536172BC
:1010D8006961277320536F6E6700507265737320C0
:1010E8004220746F2073746F702E004D61727920E6
:1010F8004861642041004C6974746C65204C616DD2
:02110800620083
:00000001FF
